:1000000080140020591700002F5900001517000018
:1000100000000000000000000000000000000000E0
:100020000000000000000000000000004515000076
:100030000000000000000000DD14000000000000CF
:10004000B9150000B9150000B9150000B915000078
:10005000B9150000B9150000B9150000B915000068
:10006000B9150000B9150000B9150000B915000058
:10007000B9150000B9150000B9150000B915000048
:10008000B9150000B9150000B9150000B915000038
:10009000B9150000B9150000B9150000B915000028
:0800A000B9150000B9150000BC
:1000A80002B4714649084900095C49008E4402BC03
:1000B8007047C04603B47146490840004900095ECC
:1000C80049008E4403BC7047002934D00123002224
:1000D80010B488422CD301242407A14204D28142BF
:1000E80002D209011B01F8E7E400A14204D28142CF
:1000F80002D249005B00F8E7884201D3401A1A434C
:100108004C08A04202D3001B5C0822438C08A04282
:1001180002D3001B9C082243CC08A04202D3001B38
:10012800DC082243002803D01B0901D00909E3E7B2
:10013800100010BC704701B5002000F05FF802BD48
:100148000029F8D003B5FFF7C1FF0EBC4243891A56
:100158001847C046002941D010B404004C40A446BA
:1001680001230022002900D54942002800D5404239
:1001780088422CD301242407A14204D2814202D20E
:1001880009011B01F8E7E400A14204D2814202D22E
:1001980049005B00F8E7884201D3401A1A434C082B
:1001A800A04202D3001B5C0822438C08A04202D361
:1001B800001B9C082243CC08A04202D3001BDC0889
:1001C8002243002803D01B0901D00909E3E71000E6
:1001D8006446002C00D5404210BC704701B5002091
:1001E80000F00CF802BDC0460029F7D003B5FFF7B0
:1001F800B3FF0EBC4243891A1847C0467047C04631
:100208001C2101231B04984201D3000C10391B0A3E
:10021800984201D3000A08391B09984201D3000902
:10022800043902A2105C40187047C0460403020259
:1002380001010101000000000000000041420840E7
:100248001C2101231B04984201D3000C10391B0AFE
:10025800984201D3000A08391B09984201D30009C2
:10026800043902A2105C401A7047C0461B1C1D1DB1
:100278001E1E1E1E1F1F1F1F1F1F1F1F002B11D1F9
:10028800002A0FD1002900D1002802D00021C9433B
:10029800080007B4024802A14018029003BDC046F6
:1002A8005DFFFFFF03B4684601B5029800F04CF803
:1002B800019B9E4602B00CBC7047C046D0400B0064
:1002C800D1409C46203AD34018435242634693405B
:1002D800184370479140030090409C46203A934051
:1002E800194352426346D3401943704710B5002959
:1002F80003D1FFF785FF203002E00800FFF780FFF9
:1003080010BDC046F7B5040C0D0091B20F00614353
:100318008C460600019383B2100C5F434443584354
:100328003B0C60441B18994202D980214902641889
:10033800019955437143180C04191B04BFB249199C
:10034800D819091903B0F0BDF0B506000F00150063
:100358001C0085B08B4263D801D1824260D821004D
:100368002800FFF7C3FF390000903000FFF7BEFFF9
:10037800009B21001B1A1A0028000393FFF7AAFF0D
:1003880000900191B94245D801D1B04242D8009BB2
:10039800019C01200021039AF61AA741FFF79AFF52
:1003A80004000D00039B002B2BD0019B009ADB0758
:1003B80050081843019B5908039B9C46B9422CD806
:1003C80001D1B04229D832003B00121A8B410126D4
:1003D80092185B410027B6185F4101235B429C4499
:1003E8006346002BEAD130003900039AFFF766FF15
:1003F800039AA4197D4106000F00FFF76BFF241A2A
:100408008D410A9B002B01D01E605F6020002900EF
:1004180005B0F0BD00240025C4E7B6197F41DCE72C
:1004280000240025EDE70000F0B504000F001E00D1
:1004380085B0002815D10CAB0B48039305F0FFFAE3
:100448000A4D010032000A4B2800009705F0B5F963
:1004580003990B9800F0BAF8064805F0AEF901F0D8
:1004680009FA200005B0F0BDF05F00002A60000026
:10047800BA620000876F000037B58020000605F0DB
:1004880070FB80231B06C01843425841344D354C3D
:10049800354B22003549019300951723C0B2FFF769
:1004A800C3FF334805F05DFB324B2200C0184342BE
:1004B8005841314B3149019300951923C0B2FFF7D8
:1004C800B3FF0120404205F04CFB01304342584144
:1004D8002B4B22002B49019300951B23C0B2FFF739
:1004E800A3FF012005F03DFB013843425841264B4C
:1004F80022002649019300951D23C0B2FFF794FFFF
:10050800234805F02EFB234B2200C01843425841D4
:10051800214B2249019300951F23C0B2FFF784FFA6
:10052800144805F01EFB124B2200C01843425841E4
:100538001B4B1C49019300952123C0B2FFF774FFA0
:10054800002005F00EFB43425841174B00950193DC
:10055800220025231549C0B2FFF766FF37BDC04604
:10056800BA620000F05F000087600000526000007F
:1005780001000080FFFFFF7FE6600000A960000027
:10058800376100000C6100007D61000054610000CB
:10059800FEFFFF7F02000080D66100009961000025
:1005A80031620000FC6100009E620000536200009E
:1005B80010B5024B1B68984710BDC04608000020C4
:1005C800014B18607047C0460800002013B50B00A7
:1005D8000021034C02000091200000F003F813BD35
:1005E800B9050000F0B51C00002799B004900591EA
:1005F8000892089B1878002801D1380027E3089B47
:1006080001330793252807D00599049B98470028AC
:1006180000DA1CE30137E3E112AD182200212800BB
:1006280005F0C6F9089B5B78252B14D1089AEB7264
:100638000232079212AB5A7AD10700D47FE102CC7A
:100648000391002900DB7FE10421187A0143197224
:10065800039B5B4277E100220126150010009446B7
:100668000392079B1B782B2B6FD068D8202B71D057
:10067800232B71D0002A05D012AE327A1100402205
:100688000A433272002D04D0202212AD2E7A324352
:100698002A72002804D0102212A8057A2A4302726E
:1006A800039A002A04D0082212A9087A02430A727F
:1006B8006246002A04D0042212A9087A02430A7268
:1006C800442112A8027A1140442902D140218A43C8
:1006D80002728022017A52420A43027200210A25DC
:1006E800079A2A2B40D1417A293B0B4301324372A6
:1006F8001578022629002E394B42594112A8437A0F
:100708004900B3430B4343722E2D45D153782A2B0E
:100718003DD00023013208361178551C08003038C6
:10072800092863D912A916930D7AA807184302233A
:100738009D432B00C00F400003430B722CE02D2B70
:100748000CD0302B96D1320000E00396079B013382
:10075800079386E73000F9E73500F7E7B446F5E791
:1007680032006943303959181378561C180030384C
:100778000928F5D9079B9342BAD0022512AB187AFB
:100788001591C90F4900A84301431972B0E7042322
:10079800417A02320B434372117812AB6C2945D06F
:1007A80029D8682930D06A294CD04C2954D01178DE
:1007B800531C12AA0793D172537A782900D9B9E049
:1007C8006D2950D8692900D9B4E0572966D841293C
:1007D80003D04539022900D9ACE0072312A98A7A47
:1007E8009A43033B13438B72012373E07343303BFB
:1007F8002A005B1890E7742929D07A29D7D1782163
:10080800587A884348390DE050787821682806D10D
:10081800587A88437039014359720232C7E7587AC7
:1008280088431021014359720132C0E7507878217A
:100838006C2803D1587A88435839ECE7587A8843AA
:100848001821EFE77821587A88435039EAE7782168
:10085800587A88434039E5E71889A5490840A549E9
:1008680001431981E0E7012005006E39C9B28D40C6
:100878002900A14D294238D12425294251D10142CC
:1008880058D00721907A884304390143917278221D
:100898001340403B5A425341DBB21BE001200D009C
:1008A8000600583DEDB2AE403500E226360235422C
:1008B80093D1924E354222D1842189020D4239D0FA
:1008C8000725917AA9430143917278210B40402B67
:1008D80011D0002312AA117A8807C00F03430220FF
:1008E8005B00814319431172A4E60721957A8D4371
:1008F80005392943E8E7137A03431372E9E7072523
:10090800967AAE43053D3543957278252B40402BAA
:1009180002D1157A284310726329DAD15A1E9341FD
:10092800BAE70721907A8843043901439172782203
:100938001340F3E7012312AA117A0B43DDE7197A72
:100948007F290FD9DB68039312AB51070CD504CC70
:100958000692002A0CDA02215A7A8A435A72012333
:100968005B4204E0012374E69207F8D51B690693FD
:10097800002512A98B7A4A7A5B0752065B0F120F81
:10098800CD600D61012B30D1D01E042804D8FFF7AB
:1009980087FB0E45450E0E002368D8171293486052
:1009A800012A09D15BB21293DB174B6006E008CC31
:1009B8001293DB174B6002E0022A14D0043412A908
:1009C8000B7A03201D000540034245D0079B089A77
:1009D8000599049804F06AFF002800DA37E13F1807
:1009E800079B089305E61BB2DDE7022B25D1D01E35
:1009F800042804D8FFF754FB0D121219190008CC6B
:100A0800012A16D012934D609BB2022AD7D11293B5
:100A1800D5E708CC129300231393D0E707230734B4
:100A28009C4303CC12901391C9E708CC129300237E
:100A3800C0E7DBB212934D60C1E7042B08D107343D
:100A480003339C4320686168083412901391B6E719
:100A5800032BB4D108CCDAE7C87A7828C0D8622842
:100A68002BD8252800D1CFE55828B9D11298139949
:100A78001E230AAA9B18009314AA0CAB04F0C9FE03
:100A8800069B0600002B0DDB1E2340200AAA9B189C
:100A980012AA117A9B1B814311720699994201D9B6
:100AA800CB1A1593002E9BD01E230AAA9B18981BBD
:100AB8000693002D32D0013030E0633815288FD8E6
:100AC800FFF7F8FA5E0068008EFF8EFF8EFF8EFF3C
:100AD80068008EFF8EFF8EFF8EFFA0007A007C00DC
:100AE8008EFF8EFF1E008EFF7A008EFF8EFF7A002B
:100AF800FD87FFFF0240000082040000010800009B
:100B0800069B129E002B37DB1900300004F05CFFB7
:100B1800331800250693002E00D161E712AB9B7AAB
:100B28001022190011400B91134200D185E00230C8
:100B3800159A0A9280185B0601D5169BC018039B6C
:100B4800002B00DC94E01B1A039312AB1B7A5A07A4
:100B5800D10F0891002A00DA8AE05B0600D478E019
:100B6800002D07D028000599049B984700286EDBC4
:100B7800089D013730236DE0300004F0FDFEC7E723
:100B88000923129A0CAE32700AAA9B18002501207C
:100B98000693C3E72B251A0702D4DB06DB0F5D019A
:100BA800129A139B002B00DB60E700215042994109
:100BB8002D251290139159E7002557E7129812AD89
:100BC800002834D01E230AAA9B18009314AA0CAB41
:100BD800002104F01EFEEF236A8906001A40484BE4
:100BE80013436B810025069BAB4200DB4CE7A84210
:100BF80000D1F5E61E230AAA9B18181A1E239B1873
:100C080006938BE7129B072A00D9E9E61000FFF745
:100C180047FA0C04060C08080C0C1F70E0E61F804D
:100C2800DEE6FA171F605A60DAE61F60D8E6354B31
:100C38000500354E0520069370E71A07D20F801875
:100C480076E705990998049B9847002805DA19B0B2
:100C5800F0BD20230993039B0893089B1A00013ACF
:100C68000892002BEDDC039AD719FF1A089B03930F
:100C7800002D06D028000599049B98470028E6DB3C
:100C8800013712AB9B7ADA0601D41B0706D5302050
:100C98000599049B98470028D9DB01370B9B002B4B
:100CA80007D012ABD87A0599049B98470028CEDB69
:100CB80001373D0006E030200599049B984700283D
:100CC800C5DB01350A9BDB195B1B002BF3DC32000B
:100CD800069B0599049804F0E9FD0028B7DB47193D
:100CE8003D00039B5B19DB1B002B00DC78E6202012
:100CF8000599049B98470028A9DB0137F1E7C0460E
:100D08001078000004630000FF62000000480047FC
:100D1800092A000000220A4B70B51A60A823094A64
:100D2800094CDB00D05825680849401BFFF7CCF96F
:100D3800064B43435B19236004F04CFB70BDC0466F
:100D48004081004000800040800200201027000001
:100D5800A2220323A12110B5114CD200A350C9002F
:100D6800625808209A43134363500022012100F07F
:100D78004FFB082000F032FB01230020094A8021A4
:100D880013602360084B094A1860C02349005B00C0
:100D9800D15080228533FF335202E25010BDC04645
:100DA800008000400C8000404081004000E100E0ED
:100DB800F7B5431C5ED00023012804DD314A130037
:100DC800904200DC431E01222F4F304C3A60304ED7
:100DD800304AA0591268801A0192C243D2171340B0
:100DE8002D4A53438018C01811001500FFF76CF9FD
:100DF80045432A4B9D4200D91D00019B80225B1967
:100E08000193C22352029B00E2500123A822002131
:100E18003B60D200A359224DA0582960C01AA350A4
:100E2800012803D104F06CFF00232B60C02380222B
:100E38001C495B005200CA50803BFF3B3B60019A53
:100E4800A359D11AA822D200012918D1981CA05060
:100E58003960A05998420FD1C12380229B005202C9
:100E6800E250002380222B600E498133FF33520069
:100E7800CA50F7BD0348A5E73960A359E6E7019BC7
:100E8800A350E9E7DB4603004480004000800040AF
:100E9800440500008002002010270000B0CAFF7F30
:100EA8004081004000E100E070B5EFF3108672B6B3
:100EB8001E4C200002F0E8FE00280ED11C4D9423A1
:100EC8002A001C491C4804F00BFD21001B4804F0B3
:100ED80007FD9421280004F0FFFC200002F0F2FE38
:100EE8000122174B17491A60174A184BD058184B4C
:100EF8001B68C01AFFF7E8F80500200002F0D4FECE
:100F080000280CD10A4DC3232A0012490A4804F0CC
:100F1800E7FC2100104804F0E3FCC321DAE7002EC7
:100F280002D162B6BFF36F8F280070BD8402002023
:100F3800056300003263000047630000646300003B
:100F48004480004010270000008000404405000055
:100F5800800200207C6300009363000070B5EFF30B
:100F6800108672B61B4C200002F08EFE00280ED1AF
:100F7800194D94232A001949194804F0B1FC21009D
:100F8800184804F0ADFC9421280004F0A5FC2000CA
:100F980002F098FE0122144B20001A60134A144BE9
:100FA800D55802F081FE00280CD10B4DC3232A002E
:100FB80010490B4804F094FC21000F4804F090FC01
:100FC800C321E1E7002E02D162B6BFF36F8F28007C
:100FD80070BDC04684020020056300003263000033
:100FE80047630000646300004480004000800040C4
:100FF800440500007C63000093630000F7B501908E
:10100800EFF3108672B6224C200002F03DFE002855
:101018000ED1204D94232A001F49204804F060FC7B
:1010280021001F4804F05CFC9421280004F054FCC3
:101038000C27200002F046FE1A4B1D68002D11D126
:10104800200002F031FE00281CD1124DC3232A00D3
:101058001549124804F044FC2100144804F040FCEF
:10106800C321E2E7019B002B0AD06B68002B05D057
:101078000F49104A097C7943885C98472D68DDE759
:10108800AB68F3E7002E02D162B6BFF36F8FF7BDEE
:1010980088020020056300003263000047630000F7
:1010A80064630000A80200207C63000093630000D2
:1010B800300300209C02002070B5144B01251C7CD5
:1010C8001F2323409D40124B60098000E943C0184C
:1010D80004F01EFB284213D00E4B0F4D002B10D0EE
:1010E8000C236343EA185178E85C04F08EFC002076
:1010F800FFF784FF0C2254430021281904F058FC00
:1011080070BD62B6BFF36F8FF1E7C04630030020B1
:10111800B0020020135A00009C020020F0B54C4B8E
:1011280085B002901F7CEFF3108372B6494E03938B
:10113800300002F0A9FD00280ED1474C942322006C
:101148004649474804F0CCFB3100464804F0C8FB48
:101158009421200004F0C0FB0C247C43300002F0F2
:10116800B1FD414B22009C46E35C404D0194002BAD
:1011780019D02B19624413CA13C30023624601997C
:101188008B54300002F090FD041E17D1324CC3235B
:1011980022003749324804F0A3FB3100354804F0F7
:1011A8009FFBC321D5E73800029900F06DF80028AD
:1011B800E7D0019BEC180EC80EC4E2E7039B002B96
:1011C80002D162B6BFF36F8F0C237B43EA5C002A1F
:1011D8003BD0029A013213D0EB189E6800213000F0
:1011E8000023254A80185941002929D1224B234937
:1011F800F018FEF769FF029B0121181AFFF7D8FDC6
:1012080003F050F80120FFF7F9FE1F2301213B40AE
:10121800994078091A4B8000C01804F02FFA194B2E
:10122800002B06D00C237B43EA185178E85C04F0C5
:10123800DFFBFFF741FF03F0A5F8200005B0F0BD84
:1012480000230E4AFFF71AF8D5E71400F5E7C04661
:10125800300300208C020020056300003263000088
:101268004763000064630000900200209C02002095
:101278007C630000936300000F2700001027000024
:10128800B0020020F9590000F0B587B00291019131
:101298004B1C04D02D4B4B4302930023019305A90B
:1012A80000F05AF82A4C03906368002B18DBFFF70C
:1012B80055FE266867680025040032003B00121BB3
:1012C800AB41AF4207DC01D1864204D8012000219E
:1012D800404212184B41002B05DC01D1002A02D1F3
:1012E800029A019B0CE00299013102D10199013166
:1012F80006D001998B42F3DC02D102998A42EFD8D9
:101308001448039906680C204C1E24B26043059CBF
:101318002418002902D1080007B0F0BD2000A568F4
:10132800002E01DBB5420CD2571C01D15F1CF3D053
:101338006768BC46002765449F4202DCECD19542B1
:10134800EAD9013989B20C3CE3E7C046102700000E
:10135800000000200C000020002801D1014B0B6088
:1013680000207047E85E0000014910220A607047BB
:1013780010ED00E0BFF34F8F30BF62B6BFF36F8F41
:101388007047C04637B505000C1E19D08B680F484A
:1013980000934B680A68452104F0AEFA6369452159
:1013A80000930B482369E26804F0A6FA452109482E
:1013B800E26904F0A1FA45210748A26904F09CFA01
:1013C8002800210002F0F2F937BDC046AB630000E7
:1013D800DF630000136400002764000043B20006C6
:1013E80005D41F221A4001239340014A1360704715
:1013F80000E100E0054A43099B009B581F2210406A
:101408001E3A8240134018007047C04600E100E0D1
:1014180070B505000C00032910D9194E5C23320061
:101428001849194804F05CFA2100184804232A00D6
:1014380004F056FA5C21300004F04EFA0322FF2132
:1014480040B20240D2009140A301C9439340002812
:101458000ADBC0240E4A800880008018A4000259C4
:101468000A401343035170BD0F2210400838094A3F
:10147800800880008018C26911401943C161F2E7F1
:101488005A6400009064000047630000AB640000E9
:1014980000E100E000ED00E030BFFDE70A4A936894
:1014A80019008831086009498C330968196080235C
:1014B80007495B05486803434B6062B6BFF36F8F0B
:1014C80093688C331868704730030020C05F0000B1
:1014D80000ED00E014498A6814481044EFF3098CC1
:1014E800F0C043464C4655465E466746F8C072B65D
:1014F8000F4F104E8A698A603E600F4C141920689D
:1015080000232360002800D162B6084C101910305F
:10151800F8C89846A146AA46B346BC462438F0C83F
:101528008CF3098870470000300300203000000069
:1015380004ED00E000000008880000000420714667
:10154800014202D0EFF3098001D1EFF308808169ED
:10155800023909780229FFD001B504F0D8F901BD94
:1015680010B5203A1360029B01245360039B07497E
:101578009360049BA143D36080235B04D361002361
:10158800916102658830036010BDC046D9570000DC
:10159800064B9860101C81F30988002162B6BFF3DE
:1015A8006F8F0022002304F013F9C0463003002097
:1015B80001B572B60A4A5069002803D0002151616A
:1015C80004F079FB62B6EFF305800649401AC000C3
:1015D8000549014409C9984709BC9E46034908477B
:1015E8003003002010000000945D0000F915000091
:1015F800044B99689869884202D00349034A0A60F3
:10160800704700003003002004ED00E000000010E7
:1016180070B5304B04005D6888B0EB05DB0D62B631
:10162800BFF36F8F100EFF2807D1F338104008283A
:1016380011D14521284804F05FF9284C2849220097
:101648002848294B04F04CF9284804F049F92000AF
:10165800254904F041F90126120701D50C0000269E
:10166800002CEAD0032B25D14521214804F044F968
:10167800A369023B1A881F4B9A4226D145211E486E
:10168800226804F039F9256820222100684604F010
:1016980086F9079B002E1AD0DA0502D1174A1343A0
:1016A80007930F2D00D9002569462800FFF76AFE29
:1016B80008B070BDF8214900114A0D4200D0114A06
:1016C80045211148103B04F017F90025DCE75B0AB7
:1016D8005B02E5E700ED00E01965000049650000E0
:1016E80083650000476300003F0400009665000022
:1016F800D465000002DF0000F0650000FF01000073
:10170800EB6400000065000011660000EFF308803C
:10171800EFF3098101B57246FFF77AFF01BDC046B4
:10172800F0B5C02400220326FF25A40010002F00D6
:101738003040C0008740054993089B005B18195941
:101748000132B94319511A2AF0D1F0BD00E100E085
:10175800FFF7DCFA72B607480749401880F3098892
:10176800EFF314800221084380F31488BFF36F8FCE
:1017780004F0E0F8800700200008000010B50A4BCC
:101788009B6883420DD1EFF30583002B09D080229B
:10179800064B520559680A435A605A6A04490A4076
:1017A8005A6203F0E9FA10BD3003002000ED00E0B2
:1017B800FF7FFFFF014B18607047C04610000020F4
:1017C80010B5022805D90123024A02380001134343
:1017D800984710BDE05E000070B50500074C084B47
:1017E8009C4202D30024200070BD2800216804F028
:1017F800CBF80028F7D01C34F1E7C046785E00002B
:10180800945E0000F7B5114B0700019300230D000B
:101818001400019A0E4E13700E4B9E420ED3BB68F5
:10182800002B01D02000984702210B4BAA6820000A
:10183800197090470123019A1370F7BD3368002B84
:1018480002D02100280098470836E5E775030020F4
:10185800A85E0000A85E00008400002010B50448BF
:10186800FFF78CFF03F082FAFFF788FF10BDC04630
:101878009000002010B50E4B1B78002B0ED05A1E7E
:10188800012A0FD90B49052B02D80B4A9B009958FE
:101898000A4803F092FF0222094B01E00522094B96
:1018A8001A7004E00222074B1A70FFF7D7FF10BD29
:1018B800840000202D660000E85E00003766000006
:1018C800760300207503002070B50500094C002937
:1018D80001D014310C00084B9C4202D30024200094
:1018E80070BD2800216804F04FF80028F7D01434A0
:1018F800F1E7C046945E0000A85E0000F0B506005F
:101908008FB0002808D102229A4B1A7001235B423B
:10191800099309980FB0F0BD9748316803F04DFF5F
:10192800964803F04AFF0023954A1370954A1370AE
:10193800954A137073680C93002B01D098470C904C
:1019480000231F00099339003068FFF7BDFF071E09
:101958000FD1884B1A78002A00D0EFE0099A002AA4
:1019680000D1EFE001221A708848316803F025FFA2
:10197800EEE0874B79689B6830689847002800D16B
:10198800D7E03A698348136801331360796803F034
:1019980014FF01237C4C2370FFF7E0FA08227E4BEA
:1019A8001860FB681A430492012252427B49039251
:1019B8000C9A0D91029201204042C1178022784D65
:1019C80006900791774B28000D9901970096D20051
:1019D80002F096F87968002902D0280002F01CF875
:1019E800684B1B78043B012B09D96D4D280004F086
:1019F8005EF901225242D317280003F08FFA03231D
:101A08002370F368002B01D00C989847664C06E0C9
:101A18006368002B02D038000C9998470834634B50
:101A28009C42F5D3FFF79AFA002200215A4B0B92F9
:101A38001B68C31A5E480A930A9C0B9D00196941EA
:101A480091424BD1FA215A4A89009818FEF73CFB7B
:101A5800584B18603B691A69824200D21861052206
:101A6800494B55491A70474B1B78022B04D09342B7
:101A780002D00A78002A37D0002301250B70484885
:101A8800FFF77CFE4D4C4E4B79689C4233D3FA21CC
:101A9800484B89001C682000FEF716FBFA210D90C0
:101AA80089002000FEF74CFB00914649A8000D9BD9
:101AB80041587A68444803F080FE304803F07DFEC0
:101AC8003B69022D30D12E4A1278002A02D001211A
:101AD800284A11705A6801325A602AE0FA22002313
:101AE8009200FEF7CBFBB3E70121033BDBB299423F
:101AF80052415500C3E7606803F046FF00280CD147
:101B08003968206803F040FF002806D1237A002BAB
:101B180005D0012BBBD1AB1E02E00C34B3E76B1E22
:101B28005A1E9341DDB2B2E7002D1BD1DA680132AB
:101B3800DA60104B1B78022B00D004E7099B002BBE
:101B480000D011E72148316803F037FE00230993DC
:101B580004220D4B1A703369002B00D1D9E60C987A
:101B68009847D6E69A6801329A60099B013309932F
:101B7800DFE7C046760300206A6600008066000042
:101B8800740300207503002084000020066700000D
:101B98000C5F0000C5660000B8020020800300202A
:101BA800900000200D180000A85E0000A85E00004C
:101BB800E7030000B402002077030020785E0000ED
:101BC800785E0000005F0000D1660000EE6600004D
:101BD800F7B51D4F00263B781C4C0190022B22D1F3
:101BE8003000FEBD00230A6913600A6953600A6960
:101BF80093600A69D3600A6913612068FFF764FE7D
:101C0800011EEFD12000FFF779FE2B6801332B600E
:101C1800431E9841AB681818A86001203B78361815
:101C2800022BDDD01C340A4B9C42D9D2094B21002F
:101C38005B680198A5699847002801D00021DCE776
:101C48006B6801336B60E9E776030020785E00007B
:101C5800945E00000C5F0000F8B501271D4C1E4B78
:101C68009C420DD31D4D2C001D4EB54213D3002FA1
:101C780002D101221B4B1A700125B44218D3F8BDBA
:101C8800A3691D68002D04D11748216803F095FD4C
:101C98002F001C34E3E72868FFF79EFD061E05D1D8
:101CA80012482A68696803F088FD37001435DBE7B5
:101CB8002269D16893685B18516812685B1893426F
:101CC80006D00B486268216803F077FD054B1D704C
:101CD8001434D2E7785E0000945E0000945E000041
:101CE800A85E0000760300201C6700004167000022
:101CF8008367000010B5024B1B68984710BDC046AB
:101D08000C5F0000F0B591B003F083FE634803F068
:101D180054FD634B0893089A624B9A4200D28DE0B7
:101D2800614803F04AFD614B61481B78614D624C84
:101D3800002B00D1AAE003F040FD280003F03DFD90
:101D48005E49200003F039FD002011B0F0BD099B69
:101D58000133099323691A695968AD181A689142C1
:101D680061D10A9B01330A93089B21001868FFF789
:101D7800ABFD041EEBD1099A0A99022306000D90C7
:101D88008A421FD00C9B4E48511A5843FEF7E2F97D
:101D9800FA2189000600FEF7DDF94A4F0D90474306
:101DA800BF190A213800FEF7D5F90B9B0B9ADB17F0
:101DB8009B1A0A2252424243D2190600DB0F042A18
:101DC80000DD0136FA21404A9B00280089000E9266
:101DD8000F93FEF7B5F90691FA2128008900FEF75E
:101DE80073F9099B059004930A9B0F9803930B9B27
:101DF800364F02930C9B0E990193089B41581B6820
:101E0800380000930D9A330003F0D7FC089B21009B
:101E18001868FFF759FD041E17D12D4803F0CDFCB3
:101E2800089B1C3376E7DB689A4203D10C9B01338D
:101E38000C9399E70B9B01330B9395E700252C0036
:101E480009950A950B950C958EE7236902251A6862
:101E58005968914203D0DD68AD1A6A1E9541FA218E
:101E68001F6989003800FEF76BF90191FA213800E3
:101E78008900FEF729F9174E0E990090AD00300041
:101E880063682268495903F098FCBFE703F095FCA2
:101E9800280003F092FC104953E7C04698670000F9
:101EA800785E0000945E0000516800007603002010
:101EB8008066000077680000A7680000A06800003E
:101EC800A086010018FCFFFF005F0000C16700004A
:101ED800876F000025680000BD68000067B54023D3
:101EE8000D0007490093411A491106002B00054AC5
:101EF800054803F0A5FD011E01DA3000A84767BDBB
:101F0800BC020020C35A00004C5D0000CBB210B5E3
:101F1800012B0AD9094C0A490A487A23220003F0FE
:101F2800DFFC7A21200003F0D7FC0C22C9B24A4317
:101F380003699B18986C0723184010BD02690000BC
:101F48003F69000047630000F7B5CCB2C9B2036926
:101F5800019201290CD95E231A4C1B491B48220007
:101F6800FF3303F0BDFC5E212000FF3103F0B4FC19
:101F7800EFF3108672B60C210D0065435D19AF6C46
:101F8800C0253A002A4094462F420AD0019A624559
:101F980007D0002E02D162B6BFF36F8F01204042F6
:101FA800FEBD012261435B189A64002E02D162B61D
:101FB800BFF36F8F0C22624343689B185B68984796
:101FC8000020EDE7026900003F6900004763000058
:101FD80070B50D0005490400411A40224911044812
:101FE800FFF7B2FF01002000A84770BDBC02002027
:101FF8004C5D00000022F8B5012104001000FFF735
:1020080007FA104800F00CFE0F4B984216D100F06A
:102018002FFE27690D4E3800310003F0E3FB00283E
:102028000BDB0125BD64246931002000203003F05A
:10203800D9FB002801DB00206565F8BD052040427A
:10204800FBE7C046ED2000000000AD0B185F000064
:102058001FB56B460093019300230293013303934A
:10206800064A6B4603F023FD002804DB32220023D6
:10207800684601F0B5FE05B000BDC046E75A00004D
:1020880010B5EFF3108472B6084A022113681800DD
:10209800884310600120034201D100F07DFE002C2E
:1020A80002D162B6BFF36F8F10BDC0461403002083
:1020B8000C2370B5434304000020084AD1180D6C66
:1020C8004833086498184E6C03F013FD002D03D0B4
:1020D800320021000248A84770BDC046BC0200205B
:1020E8004C5D000010B501280AD004280BD0002848
:1020F80014D10F4B9A6C0723100018401A4201D1D3
:10210800FFF7D6FF10BD0B4C0B4922000B480C4BB8
:1021180003F0E6FB0A49200003F0DEFB054C064904
:1021280022000648074B03F0DBFB0649F3E7C046ED
:10213800BC02002002690000166F0000476300001F
:102148006E0200007202000010B5EFF3108472B640
:10215800022311490A6813430B6001231A4208D16C
:10216800002C02D162B6BFF36F8F012000F0A8FDEA
:1021780011E08021094AC90588588A581A42EFD0C7
:10218800074803F0B6FC002C02D162B6BFF36F8F8C
:102198000020FFF78DFF10BD140300200C04000081
:1021A8000403002010B5084803F060FD002808D09B
:1021B800064C2000FFF7FEFA2000FEF701FA002087
:1021C80010BD13204042FBE77C5D0000D9210000D0
:1021D80070B50400074D0A2804D1AB680D2128000A
:1021E8005B689847AB6828005B68E1B298472000B5
:1021F80070BDC0467C5D00004368080010409143F4
:10220800A1225B68D2009850014A0020995070477B
:102218000C050000436800205A68014BD1507047F4
:102228000C050000436808005A68054BD3589843CA
:102238000B40A121C900505002490020535070475B
:10224800040500000C05000010B5036900290DD134
:10225800234C24492A232200234803F041FB234826
:1022680003F03EFB2A21200003F036FB48680028D3
:102278000BD11B4C1E492B2322001B4803F030FBBB
:102288001C4803F02DFB2B21EDE75868002821D0CE
:1022980088421BD108689C685860A14200D19860A8
:1022A80000200860824206D05A680A609A6859601D
:1022B800002A00D19960002010E0814206D1086808
:1022C800206098688142EBD19C60E9E704000068CF
:1022D8000028F2D1002AE7D11620404210BDC0469E
:1022E8008C690000C869000047630000D1690000DC
:1022F800E0690000F2690000F0B51E00436887B08D
:10230800009301911C7B1F2364010B401C43802315
:1023180017009B039A4205D1200001F0D9F800204C
:1023280007B0F0BD04AD08220021280003F040FBEF
:102338008023DB039F4215D180239B049E420FD14B
:1023480004232B7000232A001900200000F07EFED1
:102358002D4B984255D10121200001F04DF8DEE7C0
:102368000523EEE7C0220323D204964205D0FE23BC
:102378001B06F3185A42534101332B70009B019AF4
:102388009B68D34001221342DCD1A0235B049F4207
:10239800D8D163090CD1013BE340134213D11B4C44
:1023A8001B4922001B481C4B03F09AFA1A4907E004
:1023B800164C1A4922001748194B03F091FA18498C
:1023C800200003F089FA1F23A0212340C133FF33E3
:1023D8009B00C9055B581342B4D102ABDE1D310026
:1023E800200000F083FF0F4B984201D06E60A9E7F0
:1023F800300000F0F7FF044B9842F7D00C20404221
:102408008EE71620FBE7C0460000AD0B096A000006
:102418003C6A0000476300002F030000166F0000AD
:10242800160500000400AD0B10B500F0C9FF041E2E
:102438000DD100F087FF084B98420AD121000748C8
:1024480000F04EFF220001210620FEF7E1FF0020E8
:1024580010BD05204042FBE70000AD0B69240000D9
:1024680070B5430908D1144B5968002904D00125D7
:1024780085400C68002900D170BD8B681A002A407D
:102488002B4212D04B68002B0DD10C4C0C4922006A
:102498000C484D3303F024FA0B4803F021FA4D2180
:1024A800200003F019FA09489847231E00D0236832
:1024B80021001C00DEE7C046180300208C690000DC
:1024C8005F6A000047630000F2690000645D000075
:1024D8001F23F0B5476887B001913D7B0B406D0124
:1024E8001D4302ABD91C2800140000F0FFFEC023D6
:1024F8009B0206001C4216D1280001F011F84A4B35
:102508009E4262D102ABD87800F062FFB0425CD044
:10251800464C47496A232200464803F0E1F96A21FC
:10252800200003F0D9F90822002104A803F040FA9A
:1025380000232800190004AA00F088FD3A4B9842AD
:1025480003D01620404207B0F0BD86420ED102AB40
:10255800D87800F03DFFB04208D0344C34497C2391
:102568002200344803F0BCF97C21D9E7A3034ED5F7
:102578008322314B5200234093423AD02DD8062B68
:1025880039D024D8002B36D0033AFF3A022BD8D1C1
:1025980003A90A7001221000230C984348700323F2
:1025A800E00601D4630913408B70230327D5012368
:1025B800019A78689340A122D20083500022280013
:1025C80000F012FE184B9842BBD10020BBE78021D7
:1025D800012249008B42DBD0B3E7184A93420CD062
:1025E800C021032289008B42D2D00139FF39013A38
:1025F800F0E70722CCE71A00CAE70522C8E7640318
:10260800DCD50123019A786893400D4AD5E7032366
:10261800E20601D4A406E30F03A90B7000232800E7
:102628001A0000F013FDCDE70000AD0B6B6A000047
:10263800976A0000476300000603000002020000DA
:102648000C05000010B5026853090CD1013BD340BA
:10265800DB0713D40B4C0C4922000C480C4B03F03D
:102668003FF90B4907E0074C0A49220007480A4B83
:1026780003F036F90849200003F02EF9A020C00520
:1026880010BDC046096A00003C6A000047630000AC
:102698002F030000166F000016050000F0B50600B5
:1026A800890087B0431800920393039BB34202D179
:1026B800002007B0F0BD7F24336801931C407F2CB5
:1026C80000D1803C019B180C032841D8FDF7E8FC99
:1026D80002323A3D204B009AD450631C30D0012777
:1026E80005A80594FFF7AEFF3A00A123A240DB003E
:1026F800C25035680297AB0402D501230027029324
:1027080005A80594FFF79EFFE021019BED05DB047A
:10271800A400AD0F1B0F0019C9001B02AD004258E1
:102728001D430E4B3D431A40029B15435A002A4352
:10273800425005E00A4B009A0027D450631CD8D1B8
:102748000436B2E7A123DB00C5E7A223DB00F2E7EA
:1027580086204042ADE7C0460C050000F0F8FCFFBB
:1027680014050000074B1A68002A07D000201860DB
:10277800A323054ADB00D3580B7070470120404261
:10278800FBE7C04608210040002000409023024A91
:10279800DB00D058D05070470020004030B54B794E
:1027A800012B39D18B79032B36D1CB79002B33D13F
:1027B8000C79002C02D0022C2ED10C3496220B68F6
:1027C8001202934200D16AE03CD8962292019342C9
:1027D80000D166E023D89622D200934263D013D862
:1027E80096225200934261D096259C22AD00920217
:1027F800AB4211D103693A4D3A4842513A4A8450A2
:1028080011C911C3002030BD96221201934250D045
:102818009622520193424FD086204042F3E7E122AC
:10282800D20193424AD009D8E1229201934247D07B
:102838009622D2019342EFD12C4ADBE780222C4D1D
:102848001204D5E7E122920293423CD013D8962293
:102858005202934239D008D8264A934237D0E1220F
:1028680012029342D8D1244AC4E7E1225202934289
:10287800D2D1224ABEE7E122120393422AD008D8D5
:102888001F4A934228D0E122D2029342C4D11D4A62
:10289800B0E71D4A9342BFD180225205AAE71B4ADE
:1028A800A8E71B4AA6E79E22D202A3E7A02252026B
:1028B800A0E79D2212039DE7164A9BE7164A99E76F
:1028C800EC22920396E7154A94E7154A92E7E52227
:1028D80012048FE7134A8DE78022D2048AE7C046A4
:1028E80024050000002000406C05000000A04E00F8
:1028F800127A0000C0DA000000F0EB0000E0D70117
:1029080090D0030000705F0740420F0000509D0008
:102918000050270000B0130000F0750000B0AF03AE
:1029280000903A0100D0BE0EF8B50E0003F0B7F9DA
:102938006424174D00280AD001232B600EE0013CC7
:1029480001200021E4B202F0DBF9002C06D00122BC
:102958000021280002F044FE0028F0D000230122C4
:10296800FA240C4FA4003B600B4B1A600B4A0C4B2B
:10297800D6503B68002B05D10120013C03F0F5F847
:10298800002CF6D10122074B1A6000232B60F8BDFA
:10299800240300201C2100400820004000200040A3
:1029A8001C0500000C200040F0B5A026002102699B
:1029B800114D436885B0F6000192A9511F680400C3
:1029C80003AA380003F0B3F8002813DB039B3A6826
:1029D80019791868FFF762FE00280BDB20000199BF
:1029E800FFF7DCFE002805D10423AB51034B186028
:1029F80001232B6005B0F0BD0020004008210040F5
:102A080010B51F490B68DBB2012B38D11D4A13687A
:102A18001B061B0F0D2B0AD81B48C35C002B06D0C6
:102A28001A4B1B48186080201A4B00021860136864
:102A38001B061B0F0D2B0DD81748C35C002B09D0A4
:102A48008020C1230124DB00C005C4500B68DBB221
:102A5800A34214D113681B061B0F0D2B03D80F4A72
:102A6800D35C002B0BD00E4B1A68012A04D00D4AF8
:102A78001A601A68012AFCD1C0220B4B1A6010BDDB
:102A8800E00F00F0E80F00F0E36A000004050040E2
:102A9800DFFF07C0186C0040D56A0000C76A000055
:102AA80000EC06407593000014EC0640F7B50500ED
:102AB8001F2701912E68002E12D03000FDF7A0FBD1
:102AC8003C1AE4B201233200A340310028009A43A3
:102AD80002F086FD0028EDD0019B02481C70FEBD67
:102AE8000148FCE70000AD0B0200AD0B70B50368B0
:102AF8000125CB4004002B420AD18D4021680A00F1
:102B080020002A4302F06CFD0028F7D0014870BD70
:102B18000148FCE70000AD0B0400AD0BF7B5C2237C
:102B280080220400D2059B0000280CD0012825D063
:102B3800304C3149D8232200304802F0D1FED82148
:102B4800200002F0C9FE0221D150012206002C4BC0
:102B580018602C4B1A6001236A4680272A4DD371CE
:102B6800FF05002C2DD0012C19D0284C2249220019
:102B78002248274B02F0B4FE2549E1E7D050002255
:102B8800244B1A60244B18606B46DE1DE3E7002BCC
:102B980025D00120013D02F0E8FF002D1FD0802143
:102BA8001E4A4902BB580B40002EF0D0BA582240AA
:102BB80012E0002B13D00120013D02F0D6FF002DBA
:102BC8000DD083228021D200BB5849020B40002E31
:102BD800EFD00321BA580A403270002B00D1F7BD5C
:102BE8006B46D8790128FAD1013D02F0BEFF002DCD
:102BF800B7D1F4E7F16A0000166F000047630000E0
:102C0800040100400C000040102700002E6B00005B
:102C1800BE03000000010040040000400C04000056
:102C280010B500280CD116230B4C0C490C48220077
:102C3800FF3302F055FE16212000FF3102F04CFE52
:102C4800084B1A79002A04D11860013206481A7113
:102C580010BD0648FCE7C046F16A0000626B000040
:102C680047630000280300200000AD0B0C00AD0BEB
:102C780010B50F4B1B79002B0CD10E4C2F330E497E
:102C88000E482200FF3302F02BFE97212000490056
:102C980002F022FE0020FEF7ADFB002801D1FEF76E
:102CA8009DFB8022A3230021D205DB00D15010BD5B
:102CB80028030020F16A0000706B000047630000E1
:102CC80010B52B4B1B79002B0CD12A4C69332A49A0
:102CD80022002A48FF3302F003FEB42120004900F5
:102CE80002F0FAFD8023DB0500280BD0012836D03E
:102CF800D523204C2249220020485B0002F0F0FD39
:102D0800D521EBE78322D20099589A58C90319D5DF
:102D180003231340012B05D0002B02D00020FFF71E
:102D2800FDFE00238022A321D205C90053500021B3
:102D3800144B1960C12302319B00D1500122124B60
:102D48001A600BE0114A9A58D207EAD5104A9958E6
:102D580002221142E2D1C12189005A5010BD00213E
:102D68000C4A1160C122920098501860F6E7C046DC
:102D780028030020F16A0000706B00004763000020
:102D8800166F000004010040080000401404000011
:102D98001C0400000001004010B50A4B1B79002BF1
:102DA8000CD1B223084C094909482200FF3302F02C
:102DB80097FDB2212000FF3102F08EFDFFF7AEFE35
:102DC80010BDC04628030020F16A0000706B0000A7
:102DD8004763000010B5164B1A68002A0AD0002075
:102DE80080221860C22301219B00D205D150114BCB
:102DF8001B689847104B1A68002A0FD000221A60E7
:102E08008322053BFF3BD20099589A58920706D176
:102E1800A3210122C9005A50084B1A6010BDC222D2
:102E2800022192009950034B01201B689847F5E74F
:102E38000001004028030020040100400800004071
:102E4800034B08304000C05A8006C00F7047C04688
:102E58001C000020034B08304000C05A8007C00FF8
:102E68007047C0461C000020030070B508330B4DA6
:102E78005B005B5B04000E00DA0506D5DB041B0F64
:102E8800DB00EA1852685B599847AB68002B03D0FF
:102E980031002000EA68984770BDC0461C00002039
:102EA80070B58024184A08304000835A64002342D1
:102EB8001CD0164E590A0F253340835216000020A5
:102EC8002940338A234203D05B0A2B4099420DD014
:102ED800013002362028F4D10020CB00D050C9B2EE
:102EE8000B48FFF703FE0B4B984200D170BD32230D
:102EF800094C0A490A482200FF3302F0F1FC32214A
:102F08002000FF3102F0E8FC1C000020FFE0FFFF7A
:102F1800700000200000AD0BD86B0000976A00001D
:102F280047630000030010B542090AD0084C09495C
:102F380009482200094B02F0D3FC2000074902F09F
:102F4800CBFC01204042D8400123184010BDC046A8
:102F5800096A0000166F00004763000016050000AC
:102F680070B5046805002000FFF7DCFF00280AD1CF
:102F78000E4C0F4922000F480F4B02F0B1FC0E49CE
:102F8800200002F0A9FC1F2323402B6064090AD00B
:102F9800CE23064C0949220006489B0002F0A0FCFB
:102FA800CE218900ECE7A020C00570BD096A0000A9
:102FB8003C6A0000476300002F030000166F000002
:102FC80010B503280AD9074C074908482200084BBE
:102FD80002F086FC2000064902F07EFC80000130E9
:102FE800FF3010BD996B0000CE6B000047630000F6
:102FF800AA020000F8B500240600250001272800D1
:10300800FFF7DEFF3A00431EFF3B9B089A40130080
:10301800324207D00B4A80180268002A02D00022E8
:103028001C4302600135EDB2042DE8D1064B1A6845
:10303800002A04D000221A6080231B061C432000AB
:10304800F8BDC046006000407C610040F0B589B022
:1030580007000C001500039300291AD002F089FD1F
:10306800002821D10E210F2204ABC918D2180870EC
:103078001070230001900090380002F088FD3A009B
:103088000221514B08325200D05A8843013901437A
:10309800D152002D3AD038002C786E68FFF7DAFE4E
:1030A800002803D0002E57D0484833E0464B0493FD
:1030B8003B0008335B009C466246049BD25A444B53
:1030C8001A4005926246049B0599D152002E43D0BE
:1030D800032CE9D86B681B78002C1DD145333D4A79
:1030E800FF339B009C5007210120394088403A4A11
:1030F800FB08D15C8143D15439001C20324A083185
:1031080049008B5AA400834323438B52039B002B13
:103118002FD1324809B0F0BDA22003252D499A00CD
:103128005218C00011583E02A943115011582C4D95
:103138005B0329401150F8214901155831402604F4
:10314800314329431150059A61461A43130020223E
:103158001343049A8B52C6E71F4AFB089918D35C9D
:10316800002CC0D0072001223840824013430B7046
:10317800C2E7039B380060CBFFF792FE002DC8D052
:10318800114C22686368954201D19E421AD00F23E0
:1031980004AA9B1819001348FFF788FC0F4B9842A4
:1031A800B8D104ABDA7BD300E550E3185E603B008E
:1031B80008335B00E15A52021143802252000A434D
:1031C800E252A6E70022EEE71C0000200400AD0B47
:1031D800DF1F000000600040740000200000AD0BFD
:1031E800FFE0FCFF70000020F0B589B00C0015006E
:1031F8000390002925D0FFF72DFE002804D103985D
:10320800FFF71EFE00285DD1039E2F4F083673007E
:10321800DB5BDB065B0F02D06378012B52D00F21FA
:1032280004ABC91800200123621C0B70A31C019079
:103238000094039802F0ABFC03237600BA5B1343B7
:10324800BB53002D02D1214809B0F0BD0398FFF708
:1032580001FE002836D02E781D4BA224B100C918D3
:1032680000230398184F08304000E400C25B0B515C
:10327800184B1A40C25394466A78002AE3D0AB78B8
:10328800154D04930B5912042B40F8250B510B597B
:103298006D010593039B76031B022B40059D2B4371
:1032A800C025AD022A4080251A43049B6D031B05E7
:1032B8002B401A43634633431E00202333430A51ED
:1032C800C353C0E70548BFE71C0000200000AD0B52
:1032D80000600040DF1F0000FFE0ECFF0400AD0BC2
:1032E800014B9860D96070471C00002070B504003D
:1032F8000D1E0CD18D230D4C0D490E4822009B004C
:1033080002F0EEFA8D212000890002F0E5FAFFF7BD
:1033180097FD002807D0084B08346400E35A074893
:103328005B0B2B7070BD0648FCE7C046D86B0000ED
:10333800166C0000476300001C0000200000AD0B65
:103348000400AD0B70B5174B174D1C78002C27D116
:1033580040222100154802F02BFB2000FFF730FE29
:10336800431EFF3B9B081F2B03D1114BC0180023A2
:1033780003600134E4B2042CEFD100220D4B062087
:103388001A60FEF72BF8C1238021094A9B00090621
:10339800D1502A0001235C32074813706B6570BD59
:1033A8000648FCE7780000201C0000202C000020C4
:1033B800006000407C6100400000AD0B0500AD0BD3
:1033C800024B1878431E9841C0B27047780000201D
:1033D80010B5034B01001800FFF788FB10BDC0466D
:1033E8006C00002010B5034B01001800FFF75EFBCE
:1033F80010BDC0466C0000200200F0B52D4B08320D
:103408005200D55A85B0EE0604000191760F0AD114
:10341800294C2A4922002A482A4B02F061FA2949F4
:10342800200002F059FAFFF70BFD00281DD02000FC
:10343800FFF710FD071E18D16D0BE8B2FFF7C0FDAE
:10344800214BAA00C0180760A220D2180123C0008F
:10345800115819431150019A002A04D0C122AB40D7
:10346800194992008B5005B0F0BD019B002B0AD181
:10347800CB23114C1549220011489B0002F030FA69
:10348800CB218900CCE70321042E0ED00139052E6B
:103498000BD003A80394FFF763FDA223DB00C158F8
:1034A800039BD940012319400231200002F0BDFBE3
:1034B800D9E7C0461C000020D86B0000206C000033
:1034C800476300001D03000000600040356C0000E9
:1034D80010B50400FFF7B4FC002818D02000FFF74F
:1034E800B9FC002813D101220B4B08346400E35ABD
:1034F800C2215B0B9A40094889004250A2219B00D7
:103508001B180320C9005A5882435A5010BD002185
:10351800200002F08AFBF9E71C0000200060004050
:103528000300F0B5012508331D4E85B05F000193F7
:10353800BB5B04002B4230D0FFF7CAFF2000FFF727
:103548007FFC002820D00021BB5B164A5B0B45336B
:10355800FF339B0099502000FFF7A2FC0022019B3B
:1035680003A85B00F2520394FFF7FAFCE021039BE7
:10357800C9009B00C01842580B4B1A400223134342
:1035880043500A4805B0F0BD072121408D40084A44
:10359800E308D15CA943D154DDE70648F2E7C04609
:1035A8001C00002000600040F0F8FCFF0000AD0B9C
:1035B800740000200400AD0BC123F0B5614A9B00E4
:1035C800D35880200F220006134087B01843FFF716
:1035D80011FD0090002821DA04A802F040FB5A4BA4
:1035E8009D6D002D23D1584B02939B6D1D000193B7
:1035F800049E002D00D06DE080200006FFF7FAFC45
:1036080005A802F02CFB059B1D0004937540B342EE
:1036180000D080E0009B5B005B080093A22401259A
:10362800E400009B002B00D078E007B0F0BD280034
:10363800FCF704FE012302008340072704009D4392
:103648000832414B5200D35A9B081F400193FBB2EA
:10365800029302F0F7FA04AAE308D35C0722224097
:10366800D3400122060013420FD10328B9D1019B90
:103678005B070FD40221200002F0D7FA032F25D1CF
:1036880020000299FFF7F0FBABE70228A9D1019BC4
:103698005B0711D520000299FFF7E6FB200002F036
:1036A800D1FA86429DD12000002102F0BEFA3100F5
:1036B800200002F0BAFA94E70321200002F0B5FADC
:1036C800029BB343012B00D08BE7D9E7022F00D030
:1036D80087E7D5E72800FCF7B1FD01278740FB43C2
:1036E80004000393BD4302F0ADFA002800D17FE740
:1036F8000722029B083464001B5B9B081340052BC0
:1037080003D1039B1E40049672E7042B00D06FE799
:10371800374304976CE7019B1D4062E70098FCF76C
:103728008DFD2B008340009A80009A43054B009240
:10373800C31818591959C0048903890FC00EFFF717
:1037480093FB6EE7006000401C00002010B50B4B97
:103758000B4A93420FD90B4C0B49172322000B48F5
:1037680002F0BEF80A4802F0BBF81721200002F068
:10377800B3F81833EDE79342FBD310BD4C5D00005E
:10378800945D00004C6C00006F6C00004763000003
:10379800876C000010B504004521034802F0ACF81E
:1037A800200002F070FAC046A66C0000F7B50400CD
:1037B8000D00EFF3108772B601F0D8FA204B06001F
:1037C800042C02D81F4BA200D35800224521009296
:1037D8001D48220002F090F8002D06D0EB69DB05A9
:1037E80003D04521194802F087F8002E07D0300091
:1037F80002F05BFA031E02D00278002A00D1144BB3
:1038080045211448320002F077F829002000FFF71C
:10381800C1FF002D08D0EB69DB0505D0002F02D1D0
:1038280062B6BFF36F8FF7BD012CF7D0002F02D11E
:1038380062B6BFF36F8F3000FDF7A0FFF3E7C04615
:10384800BA6C0000C45F0000D06C0000FD6C000082
:10385800C86C0000236D0000F7B50127124E8300E5
:1038680001309C5983000193019BF358A34200D86F
:10387800F7BD65682368002D13D0002B0BD02800F6
:103888009847002807D0C2178018EB685040FF28D7
:1038980000DDFF201870EA6853783B435370083402
:1038A800E2E79847FBE7C046D85F000010B501245F
:1038B800094B03201C70FFF7CFFF01F073FF0420B2
:1038C800FFF7CAFF00F064F9FEF71CFA034A137BFE
:1038D800A343137310BDC04678030020B001002035
:1038E80010B5034A03480021121A02F0D0F910BD9E
:1038F8007C0300209000002070B590260400464309
:103908000102134886B009181248142505900120B1
:1039180004900E3003900020802265430E4B0290E5
:1039280001900E48F6182D180D4B300000955200E6
:1039380000F082F80422737B2C7493437373013470
:10394800084BE402E418EE606C6006B070BDC04637
:10395800800F00208A6D0000200100203003002025
:10396800DD3C000080070020F0B50020ABB0FFF779
:1039780073FF214B83F308882049214B0A6A0025ED
:103988001A40C0231B0413430B6201F0DEFFFDF74E
:10399800EBFC02221B4E06ABFF329A81B3602795DF
:1039A800FFF7D4FE0120FFF757FF0220FFF754FF6F
:1039B80001F052F8144C154BB46180220593012391
:1039C800134E14490493D200330020000395029546
:1039D8000195009500F030F804220700637B200071
:1039E8009343637300F07EFB2800FFF785FF3200E6
:1039F80039002000FDF7CCFD800F002000ED00E02D
:103A0800FFFF00FF30030020B00100208F6D000091
:103A1800B53800008010002010B5041E01D1054BF8
:103A28009C6820001F22603001F090FF00207F3446
:103A3800207010BD30030020F0B585B00D9D040046
:103A48000F9F0F2D35D12748834236D1200058309B
:103A5800A065E0650E980026207304200732607385
:103A680003308243A5738D180C9AA660E673A6618D
:103A7800E66102920B9A200001920A9A00922A00AB
:103A8800FDF76EFD200066656030B74227D01F2223
:103A9800390001F05BFF23007F331E70124B9B68D7
:103AA800002B01D00833DB6F28000834E36705B02A
:103AB800F0BD280010301E28C8D90C4C0C49220033
:103AC8000C480D4B01F00CFF102329000B480E2267
:103AD8005B4201F005FF2000074901F0FDFE077079
:103AE800DCE7C046DD3C000030030020976D000095
:103AF800BA6D0000476300001A0200003A6E000029
:103B080070B586B00400109E119DEFF30580002863
:103B18000FD0A323194C1A4922001A489B0001F020
:103B2800DFFE194801F0DCFEA3212000890001F026
:103B3800D3FE05900E9804900D9803900C9802906F
:103B48000B9801900A9800902000FFF775FF2B0052
:103B5800721C01D1013305D02B00334305D120005D
:103B680000F04EFB200006B070BD200032002B0094
:103B78000649183001F0DCFAF4E7C046976D0000FA
:103B88006B6E0000476300007D6E0000F55C00006E
:103B9800F0B5344E89B03400334DAE4223D9334C9E
:103BA800334922003348344B01F09AFE334801F080
:103BB80097FE3149200001F08FFEB36A0593336AFE
:103BC8000493F3690393B3690293736901933369A7
:103BD8000093F368B26871683068FFF72DFF3368A7
:103BE8005E652C36D8E7AE42E7D300F05BFBAC420B
:103BF80031D91E4C1E4922001E48214B01F070FE8F
:103C08001E4801F06DFE1E49D4E7636A5A1C13D0A2
:103C1800DA43D21713400693DB1707930922069855
:103C280007990023801859412668092806D10029D8
:103C380004D1300000F0E4FA2C34D8E70A2200233B
:103C4800FCF71CFB020030000E4F0B001830390047
:103C580001F06EFAF0E7AC42D7D300F093FB09B05D
:103C6800F0BDC046645E0000645E0000976D000011
:103C7800A26E000047630000F3020000876C00009A
:103C880012030000F55C000003680120002B07D038
:103C980003221340034A127C9B1A5A1E9341D8B23E
:103CA8007047C04630030020054A0300117C926823
:103CB8000A4301680020914201D118600130704721
:103CC80030030020024B1A7C9B6813430360704743
:103CD8003003002010B5104CA3689B7B7F2B0ED9B6
:103CE8000E4C0F490F482923220001F0F9FD292124
:103CF800200001F0F1FDFDF711FA002809D0EFF3DB
:103D0800108372B601F020FB074B60611B78002B13
:103D1800F1D1FDF72FFBF2E730030020CF6E000052
:103D2800F06E0000476300007803002070B50500BE
:103D3800EFF3108672B6234C2000FFF7A5FF00288A
:103D48000ED1214D94232A002049214801F0C8FDB5
:103D58002100204801F0C4FD9421280001F0BCFD99
:103D68002000FFF7AFFF280000F024FE00280AD04B
:103D7800030000228C331A6000F0B4F931002000EF
:103D880000F0F6F970BDAA68EB6820009B1A591E6E
:103D98008B419B18AB60FFF787FF00280CD10A4DB9
:103DA800C3232A000C490A4801F09AFD21000B4858
:103DB80001F096FDC321D0E7002EE3D162B6BFF330
:103DC8006F8FDFE7540300200563000032630000B3
:103DD80047630000646300007C6300009363000095
:103DE800F0B585B0050016000393EFF30583002BAB
:103DF80010D0039B13430DD02F4C30498023220051
:103E08002F4801F06DFD2F4801F06AFD8021200048
:103E180001F062FDEFF3108772B62B4C2000FFF71C
:103E280033FF00280DD1294D94232A00284924481E
:103E380001F056FD2100274801F052FD9421280089
:103E4800E6E72000FFF73EFFAB68002B1BD0013BE5
:103E58002000AB60FFF728FF00280CD11B4DC323BF
:103E68002A001D49164801F03BFD21001B4801F0BE
:103E780037FDC321E3E7002F02D162B6BFF36F8F8E
:103E8800002005B0F0BD039B33430CD12000FFF7A1
:103E98000BFF0028E2D0002F02D162B6BFF36F8F6C
:103EA80010204042EDE7039B2A00390020000096CD
:103EB800019300F029FCE4E7186F0000386F000058
:103EC80047630000866F000054030020056300006C
:103ED80032630000646300007C63000093630000A9
:103EE800C289030000207F2A11D80A4A10680028D6
:103EF8000DD00E21084A595612680020914206DB5F
:103F08005A7BD20603D10548181A431E984101234B
:103F180018407047600300205C0300202001002047
:103F280010B500280ED0114B98420BD3104A90427E
:103F380008D2C01A0F4B03211A004243CA410E4946
:103F48008A420CD9C8230D4C0D490E482200FF3374
:103F580001F0C6FCC8212000FF3101F0BDFC0121A1
:103F6800C0104343084AD15410BDC0464002002047
:103F780058020020ABAAAAAAAAAAAA0A896F000016
:103F8800AB6F0000476300007903002070B5182468
:103F98000C4B05001E7C0C4B7443E418200001F008
:103FA80085F90022094B28009A55FFF799FF002848
:103FB80007D0074B20001A680649013AD31701F0C9
:103FC800B7F870BD300300204002002079030020BC
:103FD80060030020293F000070B5164D164BEC69B0
:103FE8009C4201D0002C00D1EC68AB68002818D1A5
:103FF800002B0DD1114C1249220012488A3301F0CE
:104008006FFC114801F06CFC8A21200001F064FC6F
:104018005A7BD20605D1A269002A02D1DA897F2A01
:1040280005D89C4202D02000FFF7B0FF2300AB6107
:1040380070BDC046300300204C030020896F00008B
:104048004471000047630000866F00000D2370B5BF
:10405800C356417B002B34DBCB0632D18369002B5E
:104068002FD1802252420A434273184A90420AD101
:10407800174C184918482200BC3301F031FCBC2108
:10408800200001F029FC154A154CD169A14200D045
:104098000B00116A002B04D10460416008601062B3
:1040A8000CE00E250E2645579E57B5420AD0AE4263
:1040B80008DD5A6803604260106058600020FFF70E
:1040C8008BFF70BD8B42E7D01B68E3E7200100201F
:1040D800896F00006B710000476300003003002007
:1040E8004C03002070B50500EFF3108672B6194C2A
:1040F8002000FFF7C9FD00280ED1174D94232A0090
:104108001649174801F0ECFB2100164801F0E8FBBE
:104118009421280001F0E0FB2000FFF7D3FD2800E0
:10412800FFF794FF2000FFF7BFFD00280CD10A4DD0
:10413800C3232A000C490A4801F0D2FB21000B488E
:1041480001F0CEFBC321E4E7002E02D162B6BFF333
:104158006F8F70BD640300200563000032630000A8
:1041680047630000646300007C6300009363000001
:1041780070B5040000291FD1EFF30585002D2CD15F
:104188001A4B9A699B689A4227D0FFF78DFD002841
:104198000ED1174DE2232A001649174801F0A0FB5B
:1041A8002100164801F09CFBE221280001F094FB55
:1041B8002800FDF773F970BDFFF776FD0028FAD1E6
:1041C8000B4DC3232A000B490B4801F089FB210042
:1041D8000A4801F085FBC321E7E7FFF765FD0028E2
:1041E800EED062B6BFF36F8FE5E7C046300300201C
:1041F800056300007C6300004763000093630000D0
:1042080070B50500EFF3108672B61F4C2000FFF75B
:104218003BFD00280ED11D4D94232A001C491D4842
:1042280001F05EFB21001C4801F05AFB9421280094
:1042380001F052FB2000FFF745FD04226B7B13427F
:1042480017D12000FFF730FD00280CD10F4DC323F4
:104258002A0012490F4801F043FB2100104801F0E1
:104268003FFBC321E3E7002E02D162B6BFF36F8F95
:1042780070BD934328006B73FFF7E8FE3100200000
:10428800FFF776FFF4E7C0466403002005630000EB
:104298003263000047630000646300007C63000031
:1042A8009363000070B5EFF3108572B6294C2000B7
:1042B800FFF7EAFC00280DD1274D94232A0027494F
:1042C800274801F00DFB2100264801F009FB942145
:1042D800280012E02000FFF7F5FCEFF30583002B20
:1042E8000DD0214C2149FD2322001D4801F0F8FA88
:1042F8001F4801F0F5FAFD21200001F0EDFA1D4BF1
:104308009A68D37B012B0BD1174C1B492200144808
:10431800FD3301F0E5FA164801F0E2FAFE21EBE779
:10432800013BD3732000FFF7BFFC00280CD10A4DD6
:10433800C3232A0011490A4801F0D2FA2100104883
:1043480001F0CEFAC321C3E7002D02D162B6BFF354
:104358006F8F70BD640300200563000032630000A6
:1043680047630000646300008C7100006B6E0000FE
:10437800866F000030030020B77100007C630000E6
:104388009363000070B5EFF3108572B62C4C2000D3
:10439800FFF77AFC00280DD12A4D94232A002A49D8
:1043A8002A4801F09DFA2100294801F099FA942140
:1043B800280013E02000FFF785FC264B9A68D37B82
:1043C800002B0DD1244C254922002048244B01F014
:1043D80087FA244801F084FA2149200001F07CFA88
:1043E800EFF3058000280DD0FB231B4C1E4922004B
:1043F80016489B0001F074FA1A4801F071FAFB2183
:104408008900EAE70133D373FFF7E6FD2000FFF7E1
:104418004BFC00280CD10B4DC3232A0013490B4831
:1044280001F05EFA2100124801F05AFAC321BFE7F1
:10443800002D02D162B6BFF36F8F01F050FC70BD42
:104448006403002005630000326300004763000036
:104458006463000030030020896F0000E8710000E9
:10446800EB030000866F00006B6E00007C630000A9
:10447800936300000B4B10B599420AD10A4C0B49C3
:104488000B4822000B4B01F02BFA2000094901F0E0
:1044980023FA0B684A6813605A6000230B604B606C
:1044A80010BDC04620010020896F00006B7100001C
:1044B800476300007B0400000D2270B5825604009B
:1044C800437B214D002A06DA7F2213400100437303
:1044D8002800FFF7CFFF8023627B5B42134363739F
:1044E8001A4B9C420AD11A4C1A491B48BC23220079
:1044F80001F0F6F9BC21200001F0EEF9174AD36962
:10450800AB4200D10023116A002B04D12560616001
:104518000C6014620CE00E200E2620569E57B04206
:104528000DD086420BDD5968236061600C605C60C9
:104538009068001B43425841FFF74EFD70BD9942F9
:10454800E4D01B68E0E7C0464C03002020010020AF
:10455800896F00006B710000476300003003002082
:1045680070B5EFF3108672B6254C2000FFF78CFB70
:1045780000280ED1234D94232A002349234801F013
:10458800AFF92100224801F0ABF99421280001F08D
:10459800A3F92000FFF796FB1E4A1F4B9568186881
:1045A800A84213D1FFF7F2FC2000FFF77DFB00289B
:1045B80020D1144DC3232A001849144801F090F95A
:1045C8002100174801F08CF9C321DFE700211960A9
:1045D800127C144B9B5C8B42E6D02800FFF780FCD2
:1045E8000028E1D06B7BDB0602D12800FFF764FFCF
:1045F8002800D7E7002E02D162B6BFF36F8F70BDD7
:104608006403002005630000326300004763000074
:104618006463000030030020580300207C6300001E
:1046280093630000790300200D2210B58256040020
:10463800437B002A06DA7F22134043732100054892
:10464800FFF718FF044B9868001B43425841FFF7D7
:10465800C3FC10BD4C0300203003002070B50400DB
:104668000D00FFF7E1FF0223627B13436373002D04
:104678002AD0164BA5609C420AD1154C15491648FC
:10468800BC23220001F02CF9BC21200001F024F900
:104698002B689D4209D16B68256063601C606C6063
:1046A80012E06A689342F6D01B68002BF3D00E2202
:1046B8000E21A25659568A42F3D09142F1DD5A682A
:1046C8002360626014605C6070BDC04620010020F9
:1046D800896F00006B7100004763000070B51D0012
:1046E80016000400FFF7BAFF2B00721C01D101333A
:1046F80006D0200032002B000249183000F018FDC7
:1047080070BDC046F55C0000F7B52E4F2E4B0192E8
:104718002E4CBA6805000E001A60A04209D12C4C34
:104728002C4922002C482D4B01F0DAF82B492000A7
:1047380014E0EFF3108372B62000FFF7A5FA002803
:104748000ED1274D94232A002649234801F0C8F8A2
:104758002100254801F0C4F89421280001F0BCF894
:104768002000FFF7AFFA089A099BB8680199FFF78C
:10477800B5FF2800FFF798FA00280CD1184CE2235F
:1047880022001A49144801F0ABF82900184801F032
:10479800A7F8E221CBE72000FFF786FA00280CD122
:1047A8000F4DE2232A0011490B4801F099F8210026
:1047B8000F4801F095F8E221CFE73000FCF76EFED4
:1047C800FEBDC046300300205803002064030020CB
:1047D800896F00001972000047630000520300004F
:1047E8000563000032630000646300007C6300001E
:1047F80093630000F8B50400183000F057FDEFF39C
:10480800108772B6254D2800FFF73EFA00280ED112
:10481800234C942322002349234801F061F82900FE
:10482800224801F05DF89421200001F055F8280095
:10483800FFF748FA0D22A256637B002A06DA7F2288
:10484800134021001A486373FFF714FE1023194E12
:10485800627BB0681343001B637343425841FFF700
:10486800BBFB2800FFF720FA00280CD10C4CC3230F
:10487800220011490C4801F033F829000F4801F0D3
:104888002FF8C321D0E7002F02D162B6BFF36F8F94
:10489800B368A34201D101F022FAF8BD64030020F5
:1048A8000563000032630000476300006463000092
:1048B8004C030020300300207C6300009363000059
:1048C80010B50400806800280AD10A4C0A490B4830
:1048D80022000B4B01F004F82000094900F0FCFF0E
:1048E8002100FFF7C7FD0222637B93436373002314
:1048F800A36010BD896F000050720000476300007C
:10490800C5020000F8B504000F00EFF3108672B678
:10491800214D2800FFF7B8F900280ED11F4C942329
:1049280022001F491F4800F0DBFF29001E4800F045
:10493800D7FF9421200000F0CFFF2800FFF7C2F92D
:104948002823627B1A420FD1A368002B02D02000D3
:10495800FFF7B6FF0422637B002F00D01422934395
:1049680020006373FFF772FB2800FFF79DF900280A
:104978000CD10A4CC32322000C490A4800F0B0FFAE
:1049880029000B4800F0ACFFC321D3E7002E02D169
:1049980062B6BFF36F8FF8BD6403002005630000A3
:1049A8003263000047630000646300007C6300001A
:1049B80093630000F8B50600EFF3108772B61F4D39
:1049C8002800FFF761F900280ED11D4C942322001E
:1049D8001C491D4800F084FF29001C4800F080FF96
:1049E8009421200000F078FF2800FFF76BF9346865
:1049F800A6421AD0002C06D02000FFF761FF200045
:104A0800183000F053FC2800FFF74EF900280ED1AB
:104A18000B4CC32322000E490B4800F061FF29000C
:104A28000C4800F05DFFC321DBE70024EBE7002F13
:104A380002D162B6BFF36F8F2000F8BD6403002077
:104A480005630000326300004763000064630000F0
:104A58007C63000093630000024B034ADA611A6228
:104A68007047C046300300204C030020F7B5EFF331
:104A78000587002F0CD03D4C3D4922003D483E4B58
:104A880000F02EFF3D4800F02BFF3B49200016E0C8
:104A9800EFF3108372B63A4C01932000FFF7F4F855
:104AA80000280ED1374D94232A003749314800F0A9
:104AB80017FF2100354800F013FF9421280000F06B
:104AC8000BFF2000FFF7FEF87F22314D314EA96819
:104AD80030004B7B13404B73FFF7CCFC8022AB6854
:104AE8005242597B0A435A732B4A934208D11F4CAE
:104AF8002A49BC2322001F4800F0F2FEBC21C5E76A
:104B0800EA69B24200D13A00296A002A04D11E603B
:104B180059600B602B620CE00E200E271856D757F1
:104B2800B8421BD0874219DD51681A6059600B6082
:104B380053600120FFF750FA2000FFF7B5F800286E
:104B480010D1104DE2232A0015490A4800F0C8FE8A
:104B58002100144800F0C4FEE221AFE78A42D6D013
:104B68001268D2E70198FCF799FCF7BD896F00003D
:104B78006B6E00004763000071050000866F00003F
:104B880064030020056300003263000064630000D2
:104B9800300300204C030020200100206B7100002E
:104BA8007C63000093630000F7B504000D00EFF389
:104BB8000583002B0DD0424C424922004248434B0A
:104BC80000F08EFE424800F08BFE4049200000F0C5
:104BD80083FE03000B4303D1FFF748FF00206EE07C
:104BE8004B1C1EDB4B1C01D1831C1AD301F084F82B
:104BF80023180093EFF3108372B6364E01933000FA
:104C0800FFF742F8002810D1334C9423220033498F
:104C18002D4800F065FE3100314800F061FE942116
:104C2800D4E702235B421B1BE3E73000FFF74AF897
:104C38002C4F2D4BB8681860FFF7F6FC22001024A3
:104C4800B8682B001830294900F072FABA683000A9
:104C5800537B23435373FFF727F800280CD11E4CCE
:104C6800E22322002249184800F03AFE3100214888
:104C780000F036FEE221A9E70198FCF70FFCBB68BB
:104C88005B7B1D00254023420BD00D4C1A492200A6
:104C98000D481A4B00F024FE0D4800F021FE17497C
:104CA80094E701F029F82F0006002B00009A921BC8
:104CB800BB411000002B02DC90D1002A8ED0FEBD33
:104CC800896F00006B6E0000476300008D050000CF
:104CD800866F000064030020056300003263000053
:104CE800646300003003002058030020F55C0000D6
:104CF8007C6300009363000067720000A905000050
:104D080010B502000C000B00EFF3058100290FD04D
:104D1800B723114C114922001148DB0000F0E0FDD7
:104D2800104800F0DDFDB7212000C90000F0D4FDD7
:104D3800013207D1013305D10B4B9868FFF75AFDB3
:104D4800200010BD2100FFF72FFF0A220023C11702
:104D5800FBF7D8FAF5E7C046896F00006B6E0000D4
:104D680047630000866F000030030020014B9868FD
:104D78007047C04630030020F8B50400EFF31087F1
:104D880072B6584D2800FEF77FFF00280ED1564C0A
:104D9800942322005549564800F0A2FD29005548A1
:104DA80000F09EFD9421200000F096FD2800FEF7FB
:104DB80089FF237BDB0724D52800FEF775FF002831
:104DC8000CD1494CC32322004B49494800F088FDC7
:104DD80029004A4800F084FDC321E4E7002F02D1EE
:104DE80062B6BFF36F8F464D46492A004048464B8E
:104DF80000F076FD2100454800F072FD2800424988
:104E0800D2E70823627B1A420AD02800FEF74CFF3B
:104E18000028D6D0002F02D162B6BFF36F8FF8BD3D
:104E28002021100088430100194348B200282FDBD5
:104E38006173A368002B02D02000FFF741FD20001A
:104E4800183000F033FA2300A66D58339E4201D083
:104E5800002E26D10120FFF7BFF82D4B9B68A342F7
:104E6800D3D1EFF30583002BCFD12800FEF71CFF29
:104E78001F4E002824D11C4CE223220030001E497A
:104E880000F02EFD29001D4800F02AFDE2218AE7E6
:104E98005F210A40134321001E486373FFF7EAFAB3
:104EA800C7E73000FFF70CFD3000183000F0FEF9BE
:104EB800330000228C3330001A60FFF7C7F8C2E7CE
:104EC8003800FCF7EBFAE0230D4C0E4922003000C5
:104ED800DB0000F005FD104800F002FDE021C900EC
:104EE80061E7C046640300200563000032630000E8
:104EF80047630000646300007C6300009363000064
:104F0800896F0000166F0000CA060000A772000033
:104F1800300300204C030020C6720000F0B585B0B5
:104F2800040000920193EFF3108672B6424D2800F8
:104F3800FEF7AAFE00280ED1404C942322004049D7
:104F4800404800F0CDFC29003F4800F0C9FC9421FE
:104F5800200000F0C1FC2800FEF7B4FE637B1B07AD
:104F68004CD4009B019A0293019B0393009B13432B
:104F780057D0364FB868A04256D00300A2685833BD
:104F88009A4251D0EFF30583002B0DD0E423304C27
:104F9800304922002B48DB0000F0A2FC2E4800F02C
:104FA8009FFCE421C900D3E721005831FFF756FBE5
:104FB800029B013302D1039B013306D0B86827490D
:104FC800009A019B183000F0B3F82800FEF76CFE39
:104FD80000280CD1194CE22322002149194800F07D
:104FE8007FFC29001F4800F07BFCE221B0E730007D
:104FF800FCF754FA0400200005B0F0BD0024280096
:10500800FEF752FE002811D10C4CC323220014498C
:105018000C4800F065FC2900124800F061FCC3212F
:1050280096E710246442EAE72D24FBE7002EE2D13C
:1050380062B6BFF36F8FDEE76403002005630000EC
:1050480032630000476300006463000030030020FF
:10505800896F00006B6E0000E8720000F55C0000CC
:105068007C6300009363000010B50648064A0749B0
:10507800121A00F010FE064A0649074800F00BFE17
:1050880010BDC046000000208B0000207073000097
:10509800000000007073000000000020002010B520
:1050A800034B1B68834201D1FBF7FEFE10BDC046CF
:1050B8006803002070B50E4B1E689E4203D1FFF7AF
:1050C800EDFF0C4870BDFFF7E9FF002EF9D03269FB
:1050D80073690400C517121BAB41002BF1DC03D127
:1050E800802109068A42ECD2D843C0171040E9E76C
:1050F8007C000020FFFFFF7F30B500280ED00B4B4F
:105108005B6898420AD00168002907D00A694B6990
:105118000469456912196B410A614B610368426869
:1051280013605A6000230360436030BD7C00002098
:10513800F7B5040016001F00531C02D17B1C00D1D8
:105148009AE02568002D0DD04C4C4D495E23220075
:105158004C4800F0C5FB4C4800F0C2FB5E21200023
:1051680000F0BAFBA160EFF3108372B60193474BCE
:1051780018000093FEF788FD00280CD1444C9423B6
:10518800220044493F4800F0ABFB0099424800F038
:10519800A7FB9421E3E70098FEF794FD002F23DA9C
:1051A8007B1C01D1B31C1FD83C4B186859680222DC
:1051B8005242D317121A8B41921BBB41002B04DCBD
:1051C80001D1002A01D101220023354F22616361F8
:1051D8003B68BB4200D01D007E68002D0FD12760C0
:1051E800666034607C601CE0FFF758FF01220023F2
:1051F80092197B410600C71792197B41E5E7286998
:10520800696922696369994202DC27D1904225D9EC
:10521800801A99416B6828616961636025601C6028
:105228006C601F4A1368934206D09C4204D1FFF772
:1052380041FF0021FBF7BCFD0098FEF735FD002873
:1052480014D1134CC323220016490E4800F048FB22
:105258000099154800F044FBC32180E7121A8B41DE
:1052680022616361B542BAD02D68B6E7019B002B75
:1052780002D162B6BFF36F8FF7BDC046FD72000062
:105288002173000047630000866F00006C03002054
:1052980005630000326300006463000058020020C8
:1052A8007C0000207C6300009363000070B505005B
:1052B800EFF3108672B61D4C2000FEF7E5FC0028BF
:1052C8000ED11B4D94232A001A491B4800F008FBF5
:1052D80021001A4800F004FB9421280000F0FCFA91
:1052E8002000FEF7EFFC2B68002B15D02800FFF7F5
:1052F80003FF00252000FEF7D7FC00280FD10C4D36
:10530800C3232A000E490C4800F0EAFA21000D4890
:1053180000F0E6FAC321E0E716256D42EAE7002E21
:1053280002D162B6BFF36F8F280070BD6C030020F6
:1053380005630000326300004763000064630000F7
:105348007C6300009363000070B5EFF3108672B6BB
:10535800194C2000FEF798FC00280ED1174D942315
:105368002A001749174800F0BBFA2100164800F038
:10537800B7FA9421280000F0AFFA2000FEF7A2FC4B
:10538800FFF798FE05002000FEF78EFC00280CD1E0
:105398000A4DC3232A000D490A4800F0A1FA21004A
:1053A8000B4800F09DFAC321E4E7002E02D162B653
:1053B800BFF36F8F280070BD6C03002005630000E9
:1053C8003263000047630000646300007C630000F0
:1053D80093630000F0B5040087B0EFF3108372B652
:1053E8004D4D01932800FEF74FFC00280ED14B4C81
:1053F800942322004A494B4800F072FA46494A4829
:1054080000F06EFA9421200000F066FA2800FEF7FA
:1054180059FC464B1C60464B1C689C4200D100243A
:10542800444B049318685968404B1F680593002C37
:1054380054D062692669FB179A4202DC0AD1BE423F
:1054480008D91E00226963693D00521BB3412261DD
:10545800636143E0F31702960393029A039B801853
:10546800594100220023334D22616361286069603D
:105478002000FFF741FE284F3800FEF715FC0028F2
:105488000CD1264CC32322002B49264800F028FAC9
:1054980021492A4800F024FAC321B4E7019B002BD4
:1054A80002D162B6BFF36F8F2000A3689847EFF36D
:1054B800108372B638000193FEF7E6FB002896D0F9
:1054C8003800FEF7FFFB194B1F68BF1B1F60184B06
:1054D8001C689C42A4D1174B186859683A00FB17FE
:1054E80012184B41002404990A604B60059B1C600C
:1054F800FFF7E0FD2100FBF75BFC0748FEF7D4FB54
:10550800A042BED0019BA34202D162B6BFF36F8F07
:10551800FFF726F807B0F0BD6C0300200563000014
:1055280032630000476300006463000068030020E2
:105538007C000020580200207C6300009363000078
:10554800F8B5EFF3108572B61D4C2000FEF79CFBF2
:1055580000280ED11B4D94232A001B491B4800F03C
:10556800BFF921001A4800F0BBF99421280000F087
:10557800B3F92000FEF7A6FBFFF790FD02001549DE
:10558800C31720000E684F68B6185F41FEF78CFB02
:1055980000280CD10B4DC3232A000F490B4800F0FB
:1055A8009FF921000D4800F09BF9C321DEE7002D8B
:1055B80002D162B6BFF36F8F30003900F8BDC04624
:1055C8006C0300200563000032630000476300009D
:1055D80064630000580200207C63000093630000AD
:1055E800F7B5060000910192EFF3108772B61C4CD4
:1055F8002000FEF749FB00280ED11A4D94232A00FB
:1056080019491A4800F06CF92100194800F068F9A6
:105618009421280000F060F92000FEF753FB33685E
:10562800009A0025934202D1019B01353360200086
:10563800FEF73AFB00280CD10A4DC3232A000D4976
:105648000A4800F04DF921000B4800F049F9C32140
:10565800DFE7002F02D162B6BFF36F8F2800FEBDCF
:1056680070030020056300003263000047630000F8
:10567800646300007C63000093630000F7B50600D4
:105688000D00EFF3108772B61A4C2000FEF7FCFAF3
:1056980000280ED1184D94232A001849184800F004
:1056A8001FF92100174800F01BF99421280000F089
:1056B80013F92000FEF706FB336820001D43356010
:1056C8000193FEF7F1FA00280CD10B4DC3232A00F1
:1056D8000D490B4800F004F921000C4800F000F9CE
:1056E800C321E3E7002F02D162B6BFF36F8F0198A1
:1056F800FEBDC04670030020056300003263000051
:1057080047630000646300007C630000936300004B
:10571800F7B506000D00EFF3108772B61A4C20009B
:10572800FEF7B2FA00280ED1184D94232A00184922
:10573800184800F0D5F82100174800F0D1F8942156
:10574800280000F0C9F82000FEF7BCFA33682000F2
:105758001D4035600193FEF7A7FA00280CD10B4DC8
:10576800C3232A000D490B4800F0BAF821000C4861
:1057780000F0B6F8C321E3E7002F02D162B6BFF309
:105788006F8F0198FEBDC0467003002005630000BE
:105798003263000047630000646300007C6300001C
:1057A8009363000010B5024800F007F810BDC0462A
:1057B800417300007047002070470FB407B504A973
:1057C80001C90191FAF702FF03B008BC04B01847F9
:1057D80010B50400080011001A00A047FFF7C6FA28
:1057E800FBF7CCFF70B505000C0000280ED000298F
:1057F8000CD00B68002B09D04B68002B06D0202258
:10580800002100F0D5F800202C6170BD1620404220
:10581800FBE7F0B585B001900393D37815001A0023
:10582800413A0F00082402926F2B0AD004D8241999
:10583800582B06D0063C04E0082210249343702B12
:10584800F8D10A9E2200002339000198FAF716FDC4
:1058580013008C46D2B2092B1AD83032D3B2013E8B
:1058680033700023BB4202D1019B9C4202D8039BA8
:105878009E420AD82B789B0604D5082C10D1AB7809
:105888002343AB70300005B0F0BD67460190D9E7FF
:10589800130002995733DBB21929E0D83732DDE714
:1058A800102CEFD1AB781C43AC70EBE7F7B50700D1
:1058B80015001E0014000191A64206D8002E01D042
:1058C800601B08E02378002BFAD020780199B847AC
:1058D80001340028F0DAFEBD042062B602DF70470A
:1058E8000FB407B504A901C90191FAF76FFE03B017
:1058F80008BC04B0184770470FB407B504A901C91C
:105908000191FAF763FE03B008BC04B0184710B55C
:1059180001000068FBF736FD10BD10B5002101201D
:10592800FBF730FD10BD10B5FBF7B6FDFBF760FEC9
:1059380010BD704710B5FFF7FCFFFDF7D1FFFFF76B
:1059480093FBFBF7EDFEFEF70FF87047002310B549
:105958009A4209D100220021C3189A18934208D10B
:1059680010BDC4540133F3E7CC5C002CF9D1D21A32
:10597800F1E719700133F1E7030000201A5C002AEF
:1059880000D170470130F9E7002210B5835C8C5CC8
:10599800A34202D10132002BF8D1181B10BD0023FD
:1059A80010B59A4200D110BDCC5CC4540133F8E75D
:1059B8000300C9B28218934200D1704719700133AD
:1059C800F9E7012040427047030000201A5C002AD2
:1059D80001D0884200D170470130F7E7EFF3108318
:1059E80072B6002B02D162B6BFF36F8F00207047EA
:1059F800062809D18022A0230121D205DB00D1503D
:105A0800BFF34F8F20BFFDE7704762B6BFF36F8FBC
:105A1800704710B50020FCF76DF9FCF71DF910BDB3
:105A280010B54A690123002A01D0904703001800E5
:105A380010BD0120704710B5FCF7CAF810BD7047BB
:105A4800F7B51F000192C9B20269EFF3108672B66A
:105A58000C2507234D435519AC6C2340012B11D15C
:105A6800089BAB64002E02D162B6BFF36F8F0C2384
:105A78004B430199D2181164576442689B58984760
:105A880000200BE0C0231C40089BA34207D1002E36
:105A980002D162B6BFF36F8F78204042FEBD002E60
:105AA80001D00120F9E762B6BFF36F8FF9E713B5AC
:105AB80080240094FFF7C4FF16BD10B5C9B2006971
:105AC800490140180021904710BD10B50020FDF78E
